0010000280116CC      30SONY       Thursday 16028
0400001           05000000T00000500                                            ##_PS_PCN5108#01_01   1000000010000424 Clarence Now                  PCN5108                       PR         I      00PRO:Clarence Now              16:9
9900002           05000500 00000001            AS_SMEG1  00000000              ##_GS_GCN51601_01     0000000000000000 Uncle Grandpa Breakfast Club BGCN516                        PR        YI      00Uncle Grandpa Breakfast Club B    
0100003           05000500 00002111                                            NO_SA_CLAREN0011_01_041000000010002110 CLARENCE / Slumber Party                                    PG         P     Y04OTG:Clarence                  16:9
0100004           05002611 00095506                                            NO_SA_CLAREN0011_01_051000211110101616 CLARENCE / Slumber Party                                    PG         P     Y05PRT:Slumber Party             16:9
0100005           05102117 00001017                                            NO_SA_CLAREN0011_01_061010161710102708 CLARENCE / Slumber Party                                    PG         P     Y06CTS:Slumber Party             16:9
0100006           05103209 00000507                                            NO_SA_CLAREN0011_01_071010270910103215 CLARENCE / Slumber Party                                    PG         P     Y07LOG:CN                        16:9
0100007           05103716 00002106                                            NO_SA_CLAREN0012_01_031000000010002105 CLARENCE / Dollar Hunt                                      PG         P     Y03OTG:Clarence                  16:9
0100008           05105822 00102000                                            NO_SA_CLAREN0012_01_061000240110104400 CLARENCE / Dollar Hunt                                      PG         P     Y06PRT:Dollar Hunt               16:9
0100009           05211822 00001014                                            NO_SA_CLAREN0012_01_081010441510105503 CLARENCE / Dollar Hunt                                      PG         P     Y08CTS:Clarence                  16:9
0100010           05212911 00000222                                            NO_SA_CLAREN0012_01_091010550410105800 CLARENCE / Dollar Hunt                                      PG         P     Y09LOG:cn studios                16:9
0100011           05213208 00000211                                            NO_SA_CLAREN0012_01_101010580110110011 CLARENCE / Dollar Hunt                                      PG         P     Y10LOG:cn pulse                  16:9
9900012           05213419 00004501            BS_AUTOL  00004500              ##_GA_GCN55501_01     0000000000004500 CN15 We Bare Bears 45"        GCN555                        PR        YI      00CN15 We Bare Bears 45"            
9900013           05213419 00000001            AS_SMEG0  00000000              ##_GS_GCN51601_01     0000000000000000 Uncle Grandpa Breakfast Club BGCN516                        PR        YI      00Uncle Grandpa Breakfast Club B    
0400014           05213419 00003000                                            ##_PR_PCN5470#04_01   1000000010002924 Stunt We Bare Bears Weekend St                              PR         S      00PRO:Every Saturday @ 9:00     16:9
0400015           05220419 00001300                                            ##_PS_PCN5493#07_01   1000000010001224 Winter Ident 2016 - We Bare BePCN5493                       PR         I      00PRO:Winter Ident 2016 - We Bar16:9
0400016           05221719 00000500                                            ##_PS_PCN5251#01_01   1000000010000424 We now continue with Morning CPCN5251                       PR         I      00PRO:We now continue with Morni16:9
9900017           05222219 00000001            AS_SMEG1  00000000              ##_GS_GCN51601_01     0000000000000000 Uncle Grandpa Breakfast Club BGCN516                        PR        YI      00Uncle Grandpa Breakfast Club B    
0100018           05222219 00002202                                            NH_SA_WEBEAR0005_01_041000000010002201 WE BARE BEARS / Panda's Date                                PG         P     Y04OTG:We Bare Bears             16:9
0100019           05224421 00102605                                            NH_SA_WEBEAR0005_01_051000220210104806 WE BARE BEARS / Panda's Date                                PG         P     Y05ELT:Panda's Date              16:9
0100020           05331101 00001113                                            NH_SA_WEBEAR0005_01_061010480710105919 WE BARE BEARS / Panda's Date                                PG         P     Y06CTG:We Bare Bears             16:9
0100021           05332214 00000222                                            NH_SA_WEBEAR0005_01_071010592010110216 WE BARE BEARS / Panda's Date                                PG         P     Y07LOG:CN Studios                16:9
0100022           05332511 00000408                                            NH_SA_WEBEAR0005_01_081011021710110624 WE BARE BEARS / Panda's Date                                PG         P     Y08LOG:CN Time warner company    16:9
0100023           05332919 00002202                                            NH_SA_WEBEAR0009_01_041000000010002201 WE BARE BEARS / Food Truck                                  PG         P     Y04OTG:We Bare Bears             16:9
0100024           05335121 00103101                                            NH_SA_WEBEAR0009_01_051000220210105302 WE BARE BEARS / Food Truck                                  PG         P     Y05ELT:Food Truck                16:9
0100025           05442222 00001113                                            NH_SA_WEBEAR0009_01_061010530310110415 WE BARE BEARS / Food Truck                                  PG         P     Y06CTG:We Bare Bears             16:9
0100026           05443410 00000222                                            NH_SA_WEBEAR0009_01_071011041610110712 WE BARE BEARS / Food Truck                                  PG         P     Y07LOG:CN Studios                16:9
0100027           05443707 00000412                                            NH_SA_WEBEAR0009_01_081011071310111124 WE BARE BEARS / Food Truck                                  PG         P     Y08LOG:CN Time Warner Company    16:9
9900028           05444119 00004501            BS_AUTOL  00004500              ##_GA_GCN54510_01     0000000000004500 CN15 Regular Show Next 45"    GCN545                        PR        YI      00CN15 Regular Show Next 45"        
9900029           05444119 00000001            AS_SMEG0  00000000              ##_GS_GCN51601_01     0000000000000000 Uncle Grandpa Breakfast Club BGCN516                        PR        YI      00Uncle Grandpa Breakfast Club B    
0400030           05444119 00003000                                            ##_PR_PCN5469#03_01   1000000010002924 Regular Show Regular Show - Ne                              PR         S      00PRO:Today @ 16:25             16:9
0400031           05451119 00003000                                            ##_PR_PCN5487#02_01   1000000010002924 Supernoobs SuperNoobs Characte                              PR         S      00PRO:Today @ 19:15 Character Sp16:9
0400032           05454119 00000500                                            ##_PS_PCN5251#01_01   1000000010000424 We now continue with Morning CPCN5251                       PR         I      00PRO:We now continue with Morni16:9
9900033           05454619 00000001            AS_SMEG1  00000000              ##_GS_GCN51601_01     0000000000000000 Uncle Grandpa Breakfast Club BGCN516                        PR        YI      00Uncle Grandpa Breakfast Club B    
0100034           05454619 00000415                                            NO_SA_REGSHO0187_01_041000000410000418 REGULAR SHOW / Dumped at the A                              PG         P     Y04OTG:Regular Show              16:9
0100035           05455109 00103220                                            NO_SA_REGSHO0187_01_051000041910103713 REGULAR SHOW / Dumped at the A                              PG         P     Y05ELT:Dumped at the Altar       16:9
0100036           05562404 00000915                                            NO_SA_REGSHO0187_01_061010371410104703 REGULAR SHOW / Dumped at the A                              PG         P     Y06CTG:Regular Show              16:9
0100037           05563319 00000222                                            NO_SA_REGSHO0187_01_071010470410105000 REGULAR SHOW / Dumped at the A                              PG         P     Y07LOG:CN Studios                16:9
0100038           05563616 00000421                                            NO_SA_REGSHO0187_01_081010500110105421 REGULAR SHOW / Dumped at the A                              PG         P     Y08LOG:CN Time Warner company    16:9
9900039           05564112 00004501            BS_AUTOL  00004500              ##_GA_GCN54514_01     0000000000004500 CN15 Steven Universe Next 45" GCN545                        PR        YI      00CN15 Steven Universe Next 45"     
9900040           05564112 00000001            AS_SMEG0  00000000              ##_GS_GCN51601_01     0000000000000000 Uncle Grandpa Breakfast Club BGCN516                        PR        YI      00Uncle Grandpa Breakfast Club B    
0400041           05564112 00005200                                            ##_PR_PCN5538#01_01   1000010010005224 Steven Universe Steven Univers                              PR         S      00PRO:Steven Universe: Music Vid16:9
0400042           05573312 00001400                                            ##_PS_PCN5493#03_01   1000000010001324 Winter Ident 2016 - Gumball   PCN5493                       PR         I      00PRO:Winter Ident 2016 - Gumbal16:9
0400043           05574712 00000500                                            ##_PS_PCN5251#01_01   1000000010000424 We now continue with Morning CPCN5251                       PR         I      00PRO:We now continue with Morni16:9
9900044           05575212 00000001            AS_SMEG1  00000000              ##_GS_GCN51601_01     0000000000000000 Uncle Grandpa Breakfast Club BGCN516                        PR        YI      00Uncle Grandpa Breakfast Club B    
0100045           05575212 00002104                                            NO_SA_STVUNI0012_01_031000000010002103 STEVEN UNIVERSE / Steven's Lio                              PG         P     Y03OTG:Steven Universe           16:9
0100046           05581316 00101603                                            NO_SA_STVUNI0012_01_051000211710103719 STEVEN UNIVERSE / Steven's Lio                              PG         P     Y05PRT:Steven's Lion             16:9
0100047           06082919 00001114                                            NO_SA_STVUNI0012_01_071010380910104922 STEVEN UNIVERSE / Steven's Lio                              PG         P     Y07CTS:Steven Universe           16:9
0100048           06084108 00000222                                            NO_SA_STVUNI0012_01_081010492310105219 STEVEN UNIVERSE / Steven's Lio                              PG         P     Y08LOG:CN STUDIOS                16:9
0100049           06084405 00000223                                            NO_SA_STVUNI0012_01_091010522010105517 STEVEN UNIVERSE / Steven's Lio                              PG         P     Y09LOG:CN PULSE                  16:9
9900050           06084703 00004501            BS_AUTOL  00004500              ##_GA_GCN54415_01     0000000000004500 CN15 Gumball Next 45"         GCN544                        PR        YI      00CN15 Gumball Next 45"             
9900051           06084703 00000001            AS_SMEG0  00000000              ##_GS_GCN51601_01     0000000000000000 Uncle Grandpa Breakfast Club BGCN516                        PR        YI      00Uncle Grandpa Breakfast Club B    
0400052           06084703 00003000                                            ##_PR_PCN5487#01_01   1000000010002924 Supernoobs SuperNoobs Characte                              PR         S      00PRO:Today @ 19:15 Character Sp16:9
0400053           06091703 00003000                                            ##_PR_PCN5475#03_01   1000000010002924 Nexo Knights Nexo Knights Sust                              PR         S      00PRO:Every Sunday@ 17:20       16:9
0400054           06094703 00000500                                            ##_PS_PCN5251#01_01   1000000010000424 We now continue with Morning CPCN5251                       PR         I      00PRO:We now continue with Morni16:9
9900055           06095203 00000001            AS_SMEG1  00000000              ##_GS_GCN51601_01     0000000000000000 Uncle Grandpa Breakfast Club BGCN516                        PR        YI      00Uncle Grandpa Breakfast Club B    
0100056           06095203 00001508                                            NO_SA_GUMBAL0004_02_021000000010001507 (16:9) OTG:Amazing World of GuNO_SA_GUMBAL0004_02_2         PG         I      02OTG:Amazing World of Gumball, 16:9
0100057           06100711 00110315                                            NO_SA_GUMBAL0009_02_041000150810111822 AMAZING WORLD OF GUMBALL, THE                               PG         P     Y04ELT:Goons, The                16:9
0100058           06211101 00003001                                            NO_SA_GUMBAL0004_02_061022200110225001 (16:9) CTG:Amazing World of GuNO_SA_GUMBAL0004_02_6         PG         I      06CTG:Amazing World of Gumball, 16:9
0100059           06214102 00000501                                            NO_SA_GUMBAL0004_02_071022500210225502 (16:9) CTG:Amazing World of GuNO_SA_GUMBAL0004_02_6         PG         I      07LOG:CN Development Studio Euro16:9
9900060           06214603 00004501            BS_AUTOL  00004500              ##_GA_GCN56601_01     0000000000004500 CN15 Total Drama: Ridonculus RGCN566                        PR        YI      00CN15 Total Drama: Ridonculus R    
9900061           06214603 00000001            AS_SMEG0  00000000              ##_GS_GCN51601_01     0000000000000000 Uncle Grandpa Breakfast Club BGCN516                        PR        YI      00Uncle Grandpa Breakfast Club B    
0400062           06214603 00003000                                            ##_PR_PCN5469#03_01   1000000010002924 Regular Show Regular Show - Ne                              PR         S      00PRO:Today @ 16:25             16:9
0400063           06221603 00003000                                            ##_PR_PCN5470#04_01   1000000010002924 Stunt We Bare Bears Weekend St                              PR         S      00PRO:Every Saturday @ 9:00     16:9
0400064           06224603 00000500                                            ##_PS_PCN5251#01_01   1000000010000424 We now continue with Morning CPCN5251                       PR         I      00PRO:We now continue with Morni16:9
9900065           06225103 00000001            AS_SMEG1  00000000              ##_GS_GCN51601_01     0000000000000000 Uncle Grandpa Breakfast Club BGCN516                        PR        YI      00Uncle Grandpa Breakfast Club B    
0100066           06225103 00003619                                            NH_SA_TDRACE0013_01_051000000010003618 TOTAL DRAMA PRESENTS: THE RIDO                              PG         P     Y05RCP:Recap                     16:9
0100067           06232722 00001916                                            NH_SA_TDRACE0013_01_061000361910005609 TOTAL DRAMA PRESENTS: THE RIDO                              PG         P     Y06OTG:RIDONCULOUS RACE          16:9
0100068           06234713 00112217                                            NH_SA_TDRACE0013_01_071000561010121901 TOTAL DRAMA PRESENTS: THE RIDO                              PG         P     Y07PRT:Part 1: The Shawshank Rido16:9
0100069           06351005 00072624                                            NH_SA_TDRACE0013_01_081012190210194600 TOTAL DRAMA PRESENTS: THE RIDO                              PG         P      08PRT:Part 2: The Shawshank Rido16:9
0100070           06423704 00001620                                            NH_SA_TDRACE0013_01_091019460110200220 TOTAL DRAMA PRESENTS: THE RIDO                              PG         P      09CTS:Credits                   16:9
0100071           06425324 00000103                                            NH_SA_TDRACE0013_01_101020022110200323 TOTAL DRAMA PRESENTS: THE RIDO                              PG         P      10LOG:Ontario, Canadian Heritage16:9
0100072           06425502 00000103                                            NH_SA_TDRACE0013_01_111020032410200501 TOTAL DRAMA PRESENTS: THE RIDO                              PG         P      11LOG:Ridonculous Race Productio16:9
0100073           06425605 00000222                                            NH_SA_TDRACE0013_01_121020050210200723 TOTAL DRAMA PRESENTS: THE RIDO                              PG         P      12LOG:TeleToon Original Producti16:9
0100074           06425902 00000307                                            NH_SA_TDRACE0013_01_131020072410201105 TOTAL DRAMA PRESENTS: THE RIDO                              PG         P      13LOG:fresh tv                  16:9
0100075           06430209 00000315                                            NH_SA_TDRACE0013_01_141020110610201420 TOTAL DRAMA PRESENTS: THE RIDO                              PG         P      14LOG:CAKE TM                   16:9
9900076           06430524 00004501            BS_AUTOL  00004500              ##_GA_GCN54515_01     0000000000004500 CN15 Teen Titans Go! Next 45" GCN545                        PR        YI      00CN15 Teen Titans Go! Next 45"     
9900077           06430524 00000001            AS_SMEG0  00000000              ##_GS_GCN51601_01     0000000000000000 Uncle Grandpa Breakfast Club BGCN516                        PR        YI      00Uncle Grandpa Breakfast Club B    
0400078           06430524 00003000                                            ##_PR_PCN5486#02_01   1000000010002924 Supernoobs SuperNoobs Sustain                               PR         S      00PRO:Today @ 19:15             16:9
0400079           06433524 00001500                                            ##_PS_PCN5493#04_01   1000000010001424 Winter Ident 2016 - Teen TitanPCN5493                       PR         I      00PRO:Winter Ident 2016 - Teen T16:9
0400080           06435024 00000500                                            ##_PS_PCN5251#01_01   1000000010000424 We now continue with Morning CPCN5251                       PR         I      00PRO:We now continue with Morni16:9
9900081           06435524 00000001            AS_SMEG1  00000000              ##_GS_GCN51601_01     0000000000000000 Uncle Grandpa Breakfast Club BGCN516                        PR        YI      00Uncle Grandpa Breakfast Club B    
0100082           06435524 00001906                                            NO_SA_TETIGO0001_01_031000000010001905 OTG:Teen Titans Go!           NO_SA_TETIGO0001_01_3         PG         I      03OTG:Teen Titans Go!           16:9
0100083           06441505 00081710                                            NO_SA_TETIGO0048_01_051000190910083618 TEEN TITANS GO! - ELEMENTS / K                              PG         P     Y05ELT:Kicking a Ball & Pretendin16:9
0100084           06523215 00002400                                            NO_SA_TETIGO0001_01_101020301110205410 CTG:Teen Titans Go!           NO_SA_TETIGO0001_01_10        PG         I      10CTG:Teen Titans Go!           16:9
0100085           06525615 00000208                                            NO_SA_TETIGO0001_01_111020541110205618 CTG:Teen Titans Go!           NO_SA_TETIGO0001_01_10        PG         I      11LOG:DC                        16:9
0100086           06525823 00000212                                            NO_SA_TETIGO0001_01_121020561910205905 CTG:Teen Titans Go!           NO_SA_TETIGO0001_01_10        PG         I      12LOG:WB                        16:9
9900087           06530110 00004501            BS_AUTOL  00004500              ##_GA_GCN54401_01     0000000000004500 CN15 Adventure Time Next 45"  GCN544                        PR        YI      00CN15 Adventure Time Next 45"      
9900088           06530110 00000001            AS_SMEG0  00000000              ##_GS_GCN51601_01     0000000000000000 Uncle Grandpa Breakfast Club BGCN516                        PR        YI      00Uncle Grandpa Breakfast Club B    
0400089           06530110 00001500                                            ##_PS_PCN5493#01_01   1000000010001424 Winter Ident 2016 - Adventure PCN5493                       PR         I      00PRO:Winter Ident 2016 - Advent16:9
0400090           06531610 00003000                                            ##_PR_PCN5476#02_01   1000000010002924 Nexo Knights Nexo Knights Char                              PR         S      00PRO:Every Sunday @ 17:20 (A)  16:9
0400091           06534610 00000500                                            ##_PS_PCN5251#01_01   1000000010000424 We now continue with Morning CPCN5251                       PR         I      00PRO:We now continue with Morni16:9
9900092           06535110 00000001            AS_SMEG1  00000000              ##_GS_GCN51601_01     0000000000000000 Uncle Grandpa Breakfast Club BGCN516                        PR        YI      00Uncle Grandpa Breakfast Club B    
0100093           06535110 00002301                                            NO_SA_ADVTME0014_02_031000000010002300 (16:9) OTG:Adventure Time     NO_SA_ADVTME0014_02_3         PG         I      03OTG:Adventure Time            16:9
0100094           06541411 00102601                                            NO_SA_ADVTME0005_03_041000230910104909 ADVENTURE TIME  - ELEMENTS / M                              PG         P     Y04ELT:My Two Favorite People    16:9
0100095           07044012 00102602                                            NO_SA_ADVTME0005_03_051010491010211511 ADVENTURE TIME  - ELEMENTS / M                              PG         P     Y05ELT:Memories of Boom Boom Moun16:9
0100096           07150614 00002301                                            NO_SA_ADVTME0002_02_061021031110212611 CTG:Adventure Time (16:9)     NO_SA_ADVTME0002_02_6         PG         I      06CTG:Adventure Time            16:9
0100097           07152915 00000222                                            NO_SA_ADVTME0002_02_071021261210212908 CTG:Adventure Time (16:9)     NO_SA_ADVTME0002_02_6         PG         I      07LOG:FREDERATOR                16:9
0100098           07153212 00000222                                            NO_SA_ADVTME0002_02_081021290910213205 CTG:Adventure Time (16:9)     NO_SA_ADVTME0002_02_6         PG         I      08LOG:CN STUDIOS                16:9
0100099           07153509 00000221                                            NO_SA_ADVTME0002_02_091021320610213501 CTG:Adventure Time (16:9)     NO_SA_ADVTME0002_02_6         PG         I      09LOG:CN PULSE                  16:9
9900100           07153805 00004501            BS_AUTOL  00004500              ##_GA_GCN54406_01     0000000000004500 CN15 Clarence Next 45"        GCN544                        PR        YI      00CN15 Clarence Next 45"            
9900101           07153805 00000001            AS_SMEG0  00000000              ##_GS_GCN51601_01     0000000000000000 Uncle Grandpa Breakfast Club BGCN516                        PR        YI      00Uncle Grandpa Breakfast Club B    
0400102           07153805 00003000                                            ##_PR_PCN5486#02_01   1000000010002924 Supernoobs SuperNoobs Sustain                               PR         S      00PRO:Today @ 19:15             16:9
0400103           07160805 00003000                                            ##_PR_PCN5470#04_01   1000000010002924 Stunt We Bare Bears Weekend St                              PR         S      00PRO:Every Saturday @ 9:00     16:9
0400104           07163805 00000500                                            ##_PS_PCN5251#01_01   1000000010000424 We now continue with Morning CPCN5251                       PR         I      00PRO:We now continue with Morni16:9
9900105           07164305 00000001            AS_SMEG1  00000000              ##_GS_GCN51601_01     0000000000000000 Uncle Grandpa Breakfast Club BGCN516                        PR        YI      00Uncle Grandpa Breakfast Club B    
0100106           07164305 00002114                                            NO_SA_CLAREN0013_01_041000000010002113 CLARENCE / Jeff's New Toy                                   PG         P     Y04OTG:Clarence                  16:9
0100107           07170419 00101219                                            NO_SA_CLAREN0013_01_051000211410103407 CLARENCE / Jeff's New Toy                                   PG         P     Y05PRT:Jeff's New Toy            16:9
0100108           07271713 00001014                                            NO_SA_CLAREN0013_01_061010340810104421 CLARENCE / Jeff's New Toy                                   PG         P     Y06CTS:Jeff's New Toy            16:9
0100109           07272802 00000507                                            NO_SA_CLAREN0013_01_071010442210105003 CLARENCE / Jeff's New Toy                                   PG         P     Y07LOG:CN                        16:9
0100110           07273309 00002106                                            NO_SA_CLAREN0014_01_031000000010002105 CLARENCE / Honk                                             PG         P     Y03OTG:Clarence                  16:9
0100111           07275415 00102218                                            NO_SA_CLAREN0014_01_051000220210104419 CLARENCE / Honk                                             PG         P     Y05PRT:Honk                      16:9
0100112           07381708 00001014                                            NO_SA_CLAREN0014_01_071010451310105601 CLARENCE / Honk                                             PG         P     Y07CTS:Clarence                  16:9
0100113           07382722 00000222                                            NO_SA_CLAREN0014_01_081010560210105823 CLARENCE / Honk                                             PG         P     Y08LOG:cn studios                16:9
0100114           07383019 00000210                                            NO_SA_CLAREN0014_01_091010582410110108 CLARENCE / Honk                                             PG         P     Y09LOG:cn pulse                  16:9
9900115           07383304 00004501            BS_AUTOL  00004500              ##_GA_GCN54609_01     0000000000004500 CN15 Uncle Grandpa Next 45"   GCN546                        PR        YI      00CN15 Uncle Grandpa Next 45"       
9900116           07383304 00000001            AS_SMEG0  00000000              ##_GS_GCN51601_01     0000000000000000 Uncle Grandpa Breakfast Club BGCN516                        PR        YI      00Uncle Grandpa Breakfast Club B    
0400117           07383304 00003000                                            ##_PR_PCN5469#03_01   1000000010002924 Regular Show Regular Show - Ne                              PR         S      00PRO:Today @ 16:25             16:9
0400118           07390304 00003000                                            ##_PR_PCN5475#03_01   1000000010002924 Nexo Knights Nexo Knights Sust                              PR         S      00PRO:Every Sunday@ 17:20       16:9
0400119           07393304 00000500                                            ##_PS_PCN5251#01_01   1000000010000424 We now continue with Morning CPCN5251                       PR         I      00PRO:We now continue with Morni16:9
9900120           07393804 00000001            AS_SMEG1  00000000              ##_GS_GCN51601_01     0000000000000000 Uncle Grandpa Breakfast Club BGCN516                        PR        YI      00Uncle Grandpa Breakfast Club B    
0100121           07393804 00001924                                            NO_SA_UNCGPA0027_01_041000000410002002 UNCLE GRANDPA / Bezt Frends                                 PG         P     Y04OTG:Uncle Grandpa             16:9
0100122           07395803 00082209                                            NO_SA_UNCGPA0027_01_051000200310084211 UNCLE GRANDPA / Bezt Frends                                 PG         P     Y05PRT:Bezt Frends               16:9
0100123           07482012 00001114                                            NO_SA_UNCGPA0027_01_071010380610104919 UNCLE GRANDPA / Bezt Frends                                 PG         P     Y07CTS:Bezt Frends               16:9
0100124           07483201 00000519                                            NO_SA_UNCGPA0027_01_081010492010105513 UNCLE GRANDPA / Bezt Frends                                 PG         P     Y08LOG:CN                        16:9
0100125           07483720 00001920                                            NO_SA_UNCGPA0024_01_031000000010001919 UNCLE GRANDPA / More Uncle Gra                              PG         P     Y03OTG:Uncle Grandpa             16:9
0100126           07485715 00093609                                            NO_SA_UNCGPA0024_01_041000192010095603 UNCLE GRANDPA / More Uncle Gra                              PG         P     Y04PRT:More Uncle Grandpa Shorts 16:9
0100127           07583324 00001113                                            NO_SA_UNCGPA0024_01_051009560410100716 UNCLE GRANDPA / More Uncle Gra                              PG         P     Y05CTS:Uncle Grandpa             16:9
0100128           07584512 00000222                                            NO_SA_UNCGPA0024_01_061010071710101013 UNCLE GRANDPA / More Uncle Gra                              PG         P     Y06LOG:cn studios                16:9
0100129           07584809 00000222                                            NO_SA_UNCGPA0024_01_071010101410101310 UNCLE GRANDPA / More Uncle Gra                              PG         P     Y07LOG:cn pulse                  16:9
9900130           07585106 00004501            BS_AUTOL  00004500              ##_GA_GCN54414_01     0000000000004500 CN15 Grojband Next 45"        GCN544                        PR        YI      00CN15 Grojband Next 45"            
9900131           07585106 00000001            AS_SMEG0  00000000              ##_GS_GCN51601_01     0000000000000000 Uncle Grandpa Breakfast Club BGCN516                        PR        YI      00Uncle Grandpa Breakfast Club B    
0400132           07585106 00003000                                            ##_PR_PCN5487#03_01   1000000010002924 Supernoobs SuperNoobs Characte                              PR         S      00PRO:Today @ 19:15 Character Sp16:9
0400133           07592106 00003000                                            ##_PR_PCN5470#04_01   1000000010002924 Stunt We Bare Bears Weekend St                              PR         S      00PRO:Every Saturday @ 9:00     16:9
0400134           07595106 00001500                                            ##_PS_PCN5493#05_01   1000000010001424 Winter Ident 2016 - Uncle GranPCN5493                       PR         I      00PRO:Winter Ident 2016 - Uncle 16:9
0400135           08000606 00000500                                            ##_PS_PCN5255#07_01   1000000010000424 Grojband Now                  PCN5255                       PR         I      00PRO:Grojband Now              16:9
0100136           08001106 00001916                                            NO_SA_GROJBD0119_01_021000000010001915 GROJBAND / Bandidate, The/Pira                              PG         P     Y02OTG:Grojband                  16:9
0100137           08003022 00095317                                            NO_SA_GROJBD0119_01_031000191610101307 GROJBAND / Bandidate, The/Pira                              PG         P     Y03ELT:Bandidate, The            16:9
0100138           08102414 00100508                                            NO_SA_GROJBD0119_01_041010130810201815 GROJBAND / Bandidate, The/Pira                              PG         P      04ELT:Pirate Lounge for Me, The 16:9
0100139           08202922 00001505                                            NO_SA_GROJBD0119_01_051020181610203320 GROJBAND / Bandidate, The/Pira                              PG         P      05CTG:Grojband                  16:9
0100140           08204502 00000222                                            NO_SA_GROJBD0119_01_061020332110203617 GROJBAND / Bandidate, The/Pira                              PG         P      06LOG:teletoon                  16:9
0100141           08204724 00000303                                            NO_SA_GROJBD0119_01_071020361810203920 GROJBAND / Bandidate, The/Pira                              PG         P      07LOG:nep-toon                  16:9
0100142           08205102 00000309                                            NO_SA_GROJBD0119_01_081020392110204304 GROJBAND / Bandidate, The/Pira                              PG         P      08LOG:fresh                     16:9
0100143           08205411 00000406                                            NO_SA_GROJBD0119_01_091020430510204710 GROJBAND / Bandidate, The/Pira                              PG         P      09LOG:fremantle                 16:9
9900144           08205817 00004501            BS_AUTOL  00004500              ##_GA_GCN54410_01     0000000000004500 CN15 Dr. Dimensionpants Next 4GCN544                        PR        YI      00CN15 Dr. Dimensionpants Next 4    
0400145           08205817 00000500                                            ##_PS_PCN5042#01_01   1000000010000424 Dr. Dimensionpants Next       PCN5042                       PR         I      00PRO:Dr. Dimensionpants Next   16:9
0400146           08210317 00003000                                            ##_PR_PCN5469#03_01   1000000010002924 Regular Show Regular Show - Ne                              PR         S      00PRO:Today @ 16:25             16:9
0400147           08213317 00003000                                            ##_PR_PCN5475#03_01   1000000010002924 Nexo Knights Nexo Knights Sust                              PR         S      00PRO:Every Sunday@ 17:20       16:9
0600148           08220317 00000000                                                                  0000000000000000 NORDIC LOGO OFF                                             PR         I                                          
0400149           08220317 00000500                                            ##_PS_PCN5044#01_01   1000000010000424 CN Ad Bump Top                PCN5044                       PR         I      00PRO:CN Ad Bump Top            16:9
0600150           08220817 00000000                                                                  0000000000000000 CN Nordic cue tone start                                    CT         I                                          
0200151           08220817 00002000                                            51LLE20024_1          1000000010001924 SC-LEGO/CITY                  51LLE20024                    CA         S      01COM:51LLE20024                16:9
0200152           08222817 00002000                                            51TO020031_1          1000000010001924 SC-TOP/CARNIVAL               51TO020031                    CA         S      01COM:51TO020031                16:9
0200153           08224817 00002000                                            D1RSLA2001_1          0000000000001924 DK-WB/MARVEL ANVENGE          D1RSLA2001                    CA         S      01COM:D1RSLA2001                16:9
0200154           08230817 00001500                                            51OLE15001_1          1000000010001424 SC-OVG/LEGO URE               51OLE15001                    CA         S      01COM:51OLE15001                16:9
0200155           08232317 00002500                                            D1CSNA2522_1          0000000000002424 SC-LALANDIA/LALANDIA          D1CSNA2522                    CA         S      01                                  
0200156           08234817 00002000                                            51LLE20028_1          1000000010001924 SC-LEGO/FRIENDS               51LLE20028                    CA         S      01COM:51LLE20028                16:9
0600157           08240817 00000000                                                                  0000000000000000 NORDIC LOGO ON                                              PR         I                                          
0600158           08240817 00000000                                                                  0000000000000000 CN Nordic cue tone end                                      CT         I                                          
0400159           08240817 00000500                                            ##_PS_PCN5044#02_01   1000000010000424 CN Ad Bump Tail               PCN5044                       PR         I      00PRO:CN Ad Bump Tail           16:9
0400160           08241317 00001500                                            ##_PS_PCN5493#01_01   1000000010001424 Winter Ident 2016 - Adventure PCN5493                       PR         I      00PRO:Winter Ident 2016 - Advent16:9
0400161           08242817 00000500                                            ##_PS_PCN5185#03_01   1000000010000424 Dr. Dimensionspants Now       PCN5185                       PR         I      00PRO:Now Dr. Dimensionspants   16:9
0100162           08243317 00004319                                            NO_SA_DRDMNP0019_01_021000000010004318 DR. DIMENSIONPANTS / Goody Gob                              PG         P     Y02OTG:Dr. Dimensionpants        16:9
0100163           08251711 00100010                                            NO_SA_DRDMNP0019_01_031000431910104403 DR. DIMENSIONPANTS / Goody Gob                              PG         P     Y03ELT:Goody Gobbles             16:9
0100164           08351721 00100010                                            NO_SA_DRDMNP0019_01_041010440410204413 DR. DIMENSIONPANTS / Goody Gob                              PG         P      04ELT:Los Luchadores Lipton     16:9
0100165           08451806 00002919                                            NO_SA_DRDMNP0019_01_051020441410211407 DR. DIMENSIONPANTS / Goody Gob                              PG         P      05CTS:Goody Gobbles/Los Luchador16:9
0100166           08454800 00000222                                            NO_SA_DRDMNP0019_01_061021140810211704 DR. DIMENSIONPANTS / Goody Gob                              PG         P      06LOG:Factory Backwards, The    16:9
0100167           08455022 00000222                                            NO_SA_DRDMNP0019_01_071021170510212001 DR. DIMENSIONPANTS / Goody Gob                              PG         P      07LOG:Teletoon                  16:9
0100168           08455319 00000222                                            NO_SA_DRDMNP0019_01_081021200210212223 DR. DIMENSIONPANTS / Goody Gob                              PG         P      08LOG:dhx                       16:9
9900169           08455616 00004501            BS_AUTOL  00004500              ##_GA_GCN54510_01     0000000000004500 CN15 Regular Show Next 45"    GCN545                        PR        YI      00CN15 Regular Show Next 45"        
0400170           08455616 00000500                                            ##_PS_PCN4973#04_01   1000000010000424 Regular Show Next             PCN4973                       PR         I      00PRO:Regular Show Next         16:9
0400171           08460116 00003000                                            ##_PR_PCN5486#02_01   1000000010002924 Supernoobs SuperNoobs Sustain                               PR         S      00PRO:Today @ 19:15             16:9
0400172           08463116 00003000                                            ##_PR_PCN5470#04_01   1000000010002924 Stunt We Bare Bears Weekend St                              PR         S      00PRO:Every Saturday @ 9:00     16:9
0600173           08470116 00000000                                                                  0000000000000000 NORDIC LOGO OFF                                             PR         I                                          
0400174           08470116 00000500                                            ##_PS_PCN5044#01_01   1000000010000424 CN Ad Bump Top                PCN5044                       PR         I      00PRO:CN Ad Bump Top            16:9
0600175           08470616 00000000                                                                  0000000000000000 CN Nordic cue tone start                                    CT         I                                          
0400176           08470616 00001000                                            ##_PS_PCN5043#01_01   1000000010000924 CN Character Ident 1 (10")    PCN5043                       PR         I      00PRO:CN Character Ident 1 (10")16:9
0200177           08471616 00002000                                            51LLE20026_1          1000000010001924 SC-LEGO/FRIENDS               51LLE20026                    CA         S      01COM:51LLE20026                16:9
0200178           08473616 00002000                                            51TO020031_1          1000000010001924 SC-TOP/CARNIVAL               51TO020031                    CA         S      01COM:51TO020031                16:9
0200179           08475616 00002000                                            51LLE20024_1          1000000010001924 SC-LEGO/CITY                  51LLE20024                    CA         S      01COM:51LLE20024                16:9
0200180           08481616 00002000                                            D1RSLA2001_1          0000000000001924 DK-WB/MARVEL ANVENGE          D1RSLA2001                    CA         S      01COM:D1RSLA2001                16:9
0200181           08483616 00003000                                            51LLE30007_1          1000000010002924 SC-LEGO/NEXO KNIGHTS          51LLE30007                    CA         S      01COM:51LLE30007                16:9
0600182           08490616 00000000                                                                  0000000000000000 CN Nordic cue tone end                                      CT         I                                          
0600183           08490616 00000000                                                                  0000000000000000 NORDIC LOGO ON                                              PR         I                                          
0400184           08490616 00000500                                            ##_PS_PCN5044#02_01   1000000010000424 CN Ad Bump Tail               PCN5044                       PR         I      00PRO:CN Ad Bump Tail           16:9
0400185           08491116 00001500                                            ##_PS_PCN5493#04_01   1000000010001424 Winter Ident 2016 - Teen TitanPCN5493                       PR         I      00PRO:Winter Ident 2016 - Teen T16:9
0400186           08492616 00000500                                            ##_PS_PCN5185#01_01   1000000010000424 Regular show Now              PCN5185                       PR         I      00PRO:Now Regular show          16:9
0100187           08493116 00000413                                            NO_SA_REGSHO0014_02_031000000010000412 REGULAR SHOW / It's Time                                    PG         P     Y03OTS:Regular Show              16:9
0100188           08493604 00101803                                            NO_SA_REGSHO0014_02_041000041310102215 REGULAR SHOW / It's Time                                    PG         P     Y04PRT:It's Time                 16:9
0100189           08595407 00000914                                            NO_SA_REGSHO0014_02_051010221610103204 REGULAR SHOW / It's Time                                    PG         P     Y05CTS:Regular Show              16:9
0100190           09000321 00000421                                            NO_SA_REGSHO0014_02_061010320510103700 REGULAR SHOW / It's Time                                    PG         P     Y06LOG:cn studios                16:9
0100191           09000817 00000420                                            NO_SA_REGSHO0014_02_071010370110104120 REGULAR SHOW / It's Time                                    PG         P     Y07LOG:cn pulse                  16:9
0100192           09001312 00000413                                            NO_SA_REGSHO0015_02_031000000010000412 REGULAR SHOW / Appreciation Da                              PG         P     Y03OTS:Regular Show              16:9
0100193           09001800 00102611                                            NO_SA_REGSHO0015_02_041000041310103023 REGULAR SHOW / Appreciation Da                              PG         P     Y04PRT:Appreciation Day          16:9
0100194           09104411 00000914                                            NO_SA_REGSHO0015_02_051010302410104012 REGULAR SHOW / Appreciation Da                              PG         P     Y05CTS:Regular Show              16:9
0100195           09105400 00000421                                            NO_SA_REGSHO0015_02_061010401310104508 REGULAR SHOW / Appreciation Da                              PG         P     Y06LOG:cn studios                16:9
0100196           09105821 00000420                                            NO_SA_REGSHO0015_02_071010450910105003 REGULAR SHOW / Appreciation Da                              PG         P     Y07LOG:cn pulse                  16:9
9900197           09110316 00004501            BS_AUTOL  00004500              ##_GA_GCN54415_01     0000000000004500 CN15 Gumball Next 45"         GCN544                        PR        YI      00CN15 Gumball Next 45"             
0400198           09110316 00000500                                            ##_PS_PCN4972#21_01   1000000010000424 Gumball Next                  PCN4972                       PR         I      00PRO:Gumball Next              16:9
0400199           09110816 00003000                                            ##_PR_PCN5469#03_01   1000000010002924 Regular Show Regular Show - Ne                              PR         S      00PRO:Today @ 16:25             16:9
0400200           09113816 00003000                                            ##_PR_PCN5475#03_01   1000000010002924 Nexo Knights Nexo Knights Sust                              PR         S      00PRO:Every Sunday@ 17:20       16:9
0600201           09120816 00000000                                                                  0000000000000000 NORDIC LOGO OFF                                             PR         I                                          
0400202           09120816 00000500                                            ##_PS_PCN5044#01_01   1000000010000424 CN Ad Bump Top                PCN5044                       PR         I      00PRO:CN Ad Bump Top            16:9
0600203           09121316 00000000                                                                  0000000000000000 CN Nordic cue tone start                                    CT         I                                          
0200204           09121316 00002000                                            51TO020031_1          1000000010001924 SC-TOP/CARNIVAL               51TO020031                    CA         S      01COM:51TO020031                16:9
0200205           09123316 00002000                                            51LLE20024_1          1000000010001924 SC-LEGO/CITY                  51LLE20024                    CA         S      01COM:51LLE20024                16:9
0200206           09125316 00002000                                            51OSN20004_1          1000000010001924 SC-OVG/SNACKEEZ DUO           51OSN20004                    CA         S      01COM:51OSN20004                16:9
0200207           09131316 00002000                                            51LLE20028_1          1000000010001924 SC-LEGO/FRIENDS               51LLE20028                    CA         S      01COM:51LLE20028                16:9
0200208           09133316 00002000                                            D1RSLA2001_1          0000000000001924 DK-WB/MARVEL ANVENGE          D1RSLA2001                    CA         S      01COM:D1RSLA2001                16:9
0200209           09135316 00002000                                            51LLE20052_1          1000000010001924 SC-LEGO/NEXO KNIGHTS          51LLE20052                    CA         S      01COM:51LLE20052                16:9
0600210           09141316 00000000                                                                  0000000000000000 CN Nordic cue tone end                                      CT         I                                          
0600211           09141316 00000000                                                                  0000000000000000 NORDIC LOGO ON                                              PR         I                                          
0400212           09141316 00000500                                            ##_PS_PCN5044#02_01   1000000010000424 CN Ad Bump Tail               PCN5044                       PR         I      00PRO:CN Ad Bump Tail           16:9
0400213           09141816 00000500                                            ##_PS_PCN5108#06_01   1000000010000424 Gumball Now                   PCN5108                       PR         I      00PRO:Gumball Now               16:9
0100214           09142316 00001508                                            NO_SA_GUMBAL0004_02_021000000010001507 (16:9) OTG:Amazing World of GuNO_SA_GUMBAL0004_02_2         PG         I      02OTG:Amazing World of Gumball, 16:9
0100215           09143824 00110004                                            NO_SA_GUMBAL0019_02_051011192310222001 AMAZING WORLD OF GUMBALL, THE                               PG         P     Y05ELT:Colossus, The             16:9
0100216           09253903 00110015                                            NO_SA_GUMBAL0019_02_041000190810111922 AMAZING WORLD OF GUMBALL, THE                               PG         P     Y04ELT:Knights, The              16:9
0100217           09363918 00003001                                            NO_SA_GUMBAL0004_02_061022200110225001 (16:9) CTG:Amazing World of GuNO_SA_GUMBAL0004_02_6         PG         I      06CTG:Amazing World of Gumball, 16:9
0100218           09370919 00000501                                            NO_SA_GUMBAL0004_02_071022500210225502 (16:9) CTG:Amazing World of GuNO_SA_GUMBAL0004_02_6         PG         I      07LOG:CN Development Studio Euro16:9
9900219           09371420 00004501            BS_AUTOL  00004500              ##_GA_GCN54401_01     0000000000004500 CN15 Adventure Time Next 45"  GCN544                        PR        YI      00CN15 Adventure Time Next 45"      
0400220           09371420 00000500                                            ##_PS_PCN4972#04_01   1000000010000424 Adventure Time Next           PCN4972                       PR         I      00PRO:Adventure Time Next       16:9
0400221           09371920 00003000                                            ##_PR_PCN5487#03_01   1000000010002924 Supernoobs SuperNoobs Characte                              PR         S      00PRO:Today @ 19:15 Character Sp16:9
0400222           09374920 00001500                                            ##_PS_PCN5493#01_01   1000000010001424 Winter Ident 2016 - Adventure PCN5493                       PR         I      00PRO:Winter Ident 2016 - Advent16:9
0600223           09380420 00000000                                                                  0000000000000000 NORDIC LOGO OFF                                             PR         I                                          
0400224           09380420 00000500                                            ##_PS_PCN5044#01_01   1000000010000424 CN Ad Bump Top                PCN5044                       PR         I      00PRO:CN Ad Bump Top            16:9
0600225           09380920 00000000                                                                  0000000000000000 CN Nordic cue tone start                                    CT         I                                          
0400226           09380920 00001000                                            ##_PS_PCN5043#02_01   1000000010000924 CN Character Ident 2 (10")    PCN5043                       PR         I      00PRO:CN Character Ident 2 (10")16:9
0200227           09381920 00002000                                            D1DAAN2001_1          0000000000001924 SC-DIV/MILK HUNT              D1DAAN2001                    CA         S      01COM:D1DAAN2001                16:9
0200228           09383920 00002000                                            51LLE20024_1          1000000010001924 SC-LEGO/CITY                  51LLE20024                    CA         S      01COM:51LLE20024                16:9
0200229           09385920 00002000                                            51LLE20026_1          1000000010001924 SC-LEGO/FRIENDS               51LLE20026                    CA         S      01COM:51LLE20026                16:9
0200230           09391920 00002000                                            D1RSLA2001_1          0000000000001924 DK-WB/MARVEL ANVENGE          D1RSLA2001                    CA         S      01COM:D1RSLA2001                16:9
0200231           09393920 00003000                                            51LLE30007_1          1000000010002924 SC-LEGO/NEXO KNIGHTS          51LLE30007                    CA         S      01COM:51LLE30007                16:9
0600232           09400920 00000000                                                                  0000000000000000 CN Nordic cue tone end                                      CT         I                                          
0600233           09400920 00000000                                                                  0000000000000000 NORDIC LOGO ON                                              PR         I                                          
0400234           09400920 00000500                                            ##_PS_PCN5044#02_01   1000000010000424 CN Ad Bump Tail               PCN5044                       PR         I      00PRO:CN Ad Bump Tail           16:9
0400235           09401420 00000500                                            ##_PS_PCN5108#04_01   1000000010000424 Adventure Time Now            PCN5108                       PR         I      00PRO:Adventure Time Now        16:9
0100236           09401920 00002301                                            NO_SA_ADVTME0014_02_031000000010002300 (16:9) OTG:Adventure Time     NO_SA_ADVTME0014_02_3         PG         I      03OTG:Adventure Time            16:9
0100237           09404221 00102100                                            NO_SA_ADVTME0020_03_031000230110104400 ADVENTURE TIME  - ELEMENTS / P                              PG         P     Y03ELT:Pods,The                  16:9
0100238           09510321 00101700                                            NO_SA_ADVTME0020_03_041010440110210100 ADVENTURE TIME  - ELEMENTS / S                              PG         P     Y04ELT:Silent King, The          16:9
0100239           10012021 00002301                                            NO_SA_ADVTME0002_02_061021031110212611 CTG:Adventure Time (16:9)     NO_SA_ADVTME0002_02_6         PG         I      06CTG:Adventure Time            16:9
0100240           10014322 00000222                                            NO_SA_ADVTME0002_02_071021261210212908 CTG:Adventure Time (16:9)     NO_SA_ADVTME0002_02_6         PG         I      07LOG:FREDERATOR                16:9
0100241           10014619 00000222                                            NO_SA_ADVTME0002_02_081021290910213205 CTG:Adventure Time (16:9)     NO_SA_ADVTME0002_02_6         PG         I      08LOG:CN STUDIOS                16:9
0100242           10014916 00000221                                            NO_SA_ADVTME0002_02_091021320610213501 CTG:Adventure Time (16:9)     NO_SA_ADVTME0002_02_6         PG         I      09LOG:CN PULSE                  16:9
9900243           10015212 00004501            BS_AUTOL  00004500              ##_GA_GCN54515_01     0000000000004500 CN15 Teen Titans Go! Next 45" GCN545                        PR        YI      00CN15 Teen Titans Go! Next 45"     
0400244           10015212 00000500                                            ##_PS_PCN4973#22_01   1000000010000424 Teen Titans Go! Next          PCN4973                       PR         I      00PRO:Teen Titans Go! Next      16:9
0400245           10015712 00003000                                            ##_PR_PCN5469#03_01   1000000010002924 Regular Show Regular Show - Ne                              PR         S      00PRO:Today @ 16:25             16:9
0400246           10022712 00003000                                            ##_PR_PCN5477#04_01   1000000010002924 Nexo Knights Nexo Knights Char                              PR         S      00PRO:Every Sunday @ 17:20 (D)  16:9
0600247           10025712 00000000                                                                  0000000000000000 NORDIC LOGO OFF                                             PR         I                                          
0400248           10025712 00000500                                            ##_PS_PCN5044#01_01   1000000010000424 CN Ad Bump Top                PCN5044                       PR         I      00PRO:CN Ad Bump Top            16:9
0600249           10030212 00000000                                                                  0000000000000000 CN Nordic cue tone start                                    CT         I                                          
0400250           10030212 00001000                                            ##_PS_PCN5043#04_01   1000000010000924 CN Character Ident 4 (10")    PCN5043                       PR         I      00PRO:CN Character Ident 4 (10")16:9
0200251           10031212 00002000                                            51LLE20024_1          1000000010001924 SC-LEGO/CITY                  51LLE20024                    CA         S      01COM:51LLE20024                16:9
0200252           10033212 00002000                                            51TO020031_1          1000000010001924 SC-TOP/CARNIVAL               51TO020031                    CA         S      01COM:51TO020031                16:9
0200253           10035212 00002000                                            51LLE20028_1          1000000010001924 SC-LEGO/FRIENDS               51LLE20028                    CA         S      01COM:51LLE20028                16:9
0200254           10041212 00002000                                            D1RSLA2001_1          0000000000001924 DK-WB/MARVEL ANVENGE          D1RSLA2001                    CA         S      01COM:D1RSLA2001                16:9
0200255           10043212 00003000                                            51LLE30007_1          1000000010002924 SC-LEGO/NEXO KNIGHTS          51LLE30007                    CA         S      01COM:51LLE30007                16:9
0600256           10050212 00000000                                                                  0000000000000000 CN Nordic cue tone end                                      CT         I                                          
0600257           10050212 00000000                                                                  0000000000000000 NORDIC LOGO ON                                              PR         I                                          
0400258           10050212 00000500                                            ##_PS_PCN5044#02_01   1000000010000424 CN Ad Bump Tail               PCN5044                       PR         I      00PRO:CN Ad Bump Tail           16:9
0400259           10050712 00000500                                            ##_PS_PCN5185#04_01   1000000010000424 Teen Titans Go! Now           PCN5185                       PR         I      00PRO:Now Teen Titans Go!       16:9
0100260           10051212 00001909                                            NO_SA_TETIGO0028_01_041000000210001910 TEEN TITANS GO! / Pirates/I Se                              PG         P     Y04OTG:Teen Titans Go!           16:9
0100261           10053121 00093814                                            NO_SA_TETIGO0028_01_051000191110095724 TEEN TITANS GO! / Pirates/I Se                              PG         P     Y05ELT:Pirates                   16:9
0100262           10151010 00101000                                            NO_SA_TETIGO0028_01_061009580010200724 TEEN TITANS GO! / Pirates/I Se                              PG         P      06ELT:I See You                 16:9
0100263           10252010 00002416                                            NO_SA_TETIGO0028_01_071020080010203215 TEEN TITANS GO! / Pirates/I Se                              PG         P      07CTG:Teen Titans Go!           16:9
0100264           10254501 00000208                                            NO_SA_TETIGO0028_01_081020321610203423 TEEN TITANS GO! / Pirates/I Se                              PG         P      08LOG:DC Comics                 16:9
0100265           10254709 00000224                                            NO_SA_TETIGO0028_01_091020342410203722 TEEN TITANS GO! / Pirates/I Se                              PG         P      09LOG:WB                        16:9
9900266           10255008 00004501            BS_AUTOL  00004500              ##_GA_GCN54406_01     0000000000004500 CN15 Clarence Next 45"        GCN544                        PR        YI      00CN15 Clarence Next 45"            
0400267           10255008 00001000                                            ##_PS_PCN4991#01_01   1000000010000924 Clarence Next                 PCN4991                       PR         I      00PRO:Clarence Next             16:9
0400268           10260008 00003000                                            ##_PR_PCN5486#02_01   1000000010002924 Supernoobs SuperNoobs Sustain                               PR         S      00PRO:Today @ 19:15             16:9
0400269           10263008 00003000                                            ##_PR_PCN5470#04_01   1000000010002924 Stunt We Bare Bears Weekend St                              PR         S      00PRO:Every Saturday @ 9:00     16:9
0600270           10270008 00000000                                                                  0000000000000000 NORDIC LOGO OFF                                             PR         I                                          
0400271           10270008 00000500                                            ##_PS_PCN5044#01_01   1000000010000424 CN Ad Bump Top                PCN5044                       PR         I      00PRO:CN Ad Bump Top            16:9
0600272           10270508 00000000                                                                  0000000000000000 CN Nordic cue tone start                                    CT         I                                          
0400273           10270508 00001000                                            ##_PS_PCN5043#05_01   1000000010000924 CN Character Ident 5 (10")    PCN5043                       PR         I      00PRO:CN Character Ident 5 (10")16:9
0200274           10271508 00002000                                            51LLE20026_1          1000000010001924 SC-LEGO/FRIENDS               51LLE20026                    CA         S      01COM:51LLE20026                16:9
0200275           10273508 00002000                                            51TO020031_1          1000000010001924 SC-TOP/CARNIVAL               51TO020031                    CA         S      01COM:51TO020031                16:9
0200276           10275508 00002000                                            51LLE20024_1          1000000010001924 SC-LEGO/CITY                  51LLE20024                    CA         S      01COM:51LLE20024                16:9
0200277           10281508 00002000                                            D1RSLA2001_1          0000000000001924 DK-WB/MARVEL ANVENGE          D1RSLA2001                    CA         S      01COM:D1RSLA2001                16:9
0200278           10283508 00003000                                            51LLE30007_1          1000000010002924 SC-LEGO/NEXO KNIGHTS          51LLE30007                    CA         S      01COM:51LLE30007                16:9
0600279           10290508 00000000                                                                  0000000000000000 NORDIC LOGO ON                                              PR         I                                          
0600280           10290508 00000000                                                                  0000000000000000 CN Nordic cue tone end                                      CT         I                                          
0400281           10290508 00000500                                            ##_PS_PCN5044#02_01   1000000010000424 CN Ad Bump Tail               PCN5044                       PR         I      00PRO:CN Ad Bump Tail           16:9
0400282           10291008 00000500                                            ##_PS_PCN5108#01_01   1000000010000424 Clarence Now                  PCN5108                       PR         I      00PRO:Clarence Now              16:9
0100283           10291508 00002201                                            NO_SA_CLAREN0015_01_041000000410002204 CLARENCE / Man of the House                                 PG         P     Y04OTG:Clarence                  16:9
0100284           10293709 00102209                                            NO_SA_CLAREN0015_01_051000220510104413 CLARENCE / Man of the House                                 PG         P     Y05PRT:Man of the House          16:9
0100285           10395918 00001014                                            NO_SA_CLAREN0015_01_061010441410105502 CLARENCE / Man of the House                                 PG         P     Y06CTS:Man of the House          16:9
0100286           10401007 00000507                                            NO_SA_CLAREN0015_01_071010550310110009 CLARENCE / Man of the House                                 PG         P     Y07LOG:CN                        16:9
0100287           10401514 00002105                                            NO_SA_CLAREN0016_01_031000000010002104 CLARENCE / Zoo                                              PG         P     Y03OTG:Clarence                  16:9
0100288           10403619 00102014                                            NO_SA_CLAREN0016_01_061000240010104413 CLARENCE / Zoo                                              PG         P     Y06PRT:Zoo                       16:9
0100289           10505708 00001014                                            NO_SA_CLAREN0016_01_081010450810105521 CLARENCE / Zoo                                              PG         P     Y08CTS:Clarence                  16:9
0100290           10510722 00000222                                            NO_SA_CLAREN0016_01_091010552210105818 CLARENCE / Zoo                                              PG         P     Y09LOG:CARTOON NETWORK STUDIOS   16:9
0100291           10511019 00000211                                            NO_SA_CLAREN0016_01_101010581910110104 CLARENCE / Zoo                                              PG         P     Y10LOG:CARTOON NETWORK           16:9
9900292           10511305 00004501            BS_AUTOL  00004500              ##_GA_GCN54514_01     0000000000004500 CN15 Steven Universe Next 45" GCN545                        PR        YI      00CN15 Steven Universe Next 45"     
0400293           10511305 00000500                                            ##_PS_PCN4973#23_01   1000000010000424 Steven Universe Next          PCN4973                       PR         I      00PRO:Steven Universe Next      16:9
0400294           10511805 00005200                                            ##_PR_PCN5538#01_01   1000010010005224 Steven Universe Steven Univers                              PR         S      00PRO:Steven Universe: Music Vid16:9
0400295           10521005 00001000                                            ##_PS_PCN5492#01_01   0000010000001024 SP - Fox - Alvin Road Chip In PCN5492                       PR         I      00PRO:SP - Fox - Alvin Road Chip16:9
0600296           10522005 00000000                                                                  0000000000000000 NORDIC LOGO OFF                                             PR         I                                          
0400297           10522005 00000500                                            ##_PS_PCN5044#01_01   1000000010000424 CN Ad Bump Top                PCN5044                       PR         I      00PRO:CN Ad Bump Top            16:9
0600298           10522505 00000000                                                                  0000000000000000 CN Nordic cue tone start                                    CT         I                                          
0200299           10522505 00002000                                            51LLE20024_1          1000000010001924 SC-LEGO/CITY                  51LLE20024                    CA         S      01COM:51LLE20024                16:9
0200300           10524505 00002000                                            51TO020031_1          1000000010001924 SC-TOP/CARNIVAL               51TO020031                    CA         S      01COM:51TO020031                16:9
0200301           10530505 00002000                                            51OSN20003_1          1000000010001924 SC-OVG/SNACKEEZ DUO           51OSN20003                    CA         S      01COM:51OSN20003                16:9
0200302           10532505 00002000                                            51LLE20028_1          1000000010001924 SC-LEGO/FRIENDS               51LLE20028                    CA         S      01COM:51LLE20028                16:9
0200303           10534505 00002000                                            D1RSLA2001_1          0000000000001924 DK-WB/MARVEL ANVENGE          D1RSLA2001                    CA         S      01COM:D1RSLA2001                16:9
0200304           10540505 00002000                                            51LLE20052_1          1000000010001924 SC-LEGO/NEXO KNIGHTS          51LLE20052                    CA         S      01COM:51LLE20052                16:9
0600305           10542505 00000000                                                                  0000000000000000 NORDIC LOGO ON                                              PR         I                                          
0600306           10542505 00000000                                                                  0000000000000000 CN Nordic cue tone end                                      CT         I                                          
0400307           10542505 00000500                                            ##_PS_PCN5044#02_01   1000000010000424 CN Ad Bump Tail               PCN5044                       PR         I      00PRO:CN Ad Bump Tail           16:9
0400308           10543005 00001000                                            ##_PS_PCN5492#02_01   0000010000001024 SP - Fox - Alvin Road Chip OutPCN5492                       PR         I      00PRO:SP - Fox - Alvin Road Chip16:9
0400309           10544005 00000500                                            ##_PS_PCN5108#07_01   1000000010000424 Steven Universe Now           PCN5108                       PR         I      00PRO:Steven Universe Now       16:9
0100310           10544505 00002103                                            NO_SA_STVUNI0013_01_031000000010002102 STEVEN UNIVERSE / Steven the S                              PG         P     Y03OTG:Steven Universe           16:9
0100311           10550608 00101814                                            NO_SA_STVUNI0013_01_061000221710104105 STEVEN UNIVERSE / Steven the S                              PG         P     Y06PRT:Steven the Sword Fighter  16:9
0100312           11052422 00001113                                            NO_SA_STVUNI0013_01_071010410610105218 STEVEN UNIVERSE / Steven the S                              PG         P     Y07CTS:Steven Universe           16:9
0100313           11053610 00000222                                            NO_SA_STVUNI0013_01_081010521910105515 STEVEN UNIVERSE / Steven the S                              PG         P     Y08LOG:cn studios                16:9
0100314           11053907 00000222                                            NO_SA_STVUNI0013_01_091010551610105812 STEVEN UNIVERSE / Steven the S                              PG         P     Y09LOG:cn pulse                  16:9
0100315           11054204 00002103                                            NO_SA_STVUNI0014_01_031000000010002102 STEVEN UNIVERSE / So Many Birt                              PG         P     Y03OTG:Steven Universe           16:9
0100316           11060307 00102209                                            NO_SA_STVUNI0014_01_051000212110104404 STEVEN UNIVERSE / So Many Birt                              PG         P     Y05PRT:So Many Birthdays         16:9
0100317           11162516 00001113                                            NO_SA_STVUNI0014_01_071010441810105605 STEVEN UNIVERSE / So Many Birt                              PG         P     Y07CTS:Steven Universe           16:9
0100318           11163704 00000222                                            NO_SA_STVUNI0014_01_081010560610105902 STEVEN UNIVERSE / So Many Birt                              PG         P     Y08LOG:cartoon network studios   16:9
0100319           11164001 00000223                                            NO_SA_STVUNI0014_01_091010590310110200 STEVEN UNIVERSE / So Many Birt                              PG         P     Y09LOG:cn pulse                  16:9
9900320           11164224 00004501            BS_AUTOL  00004500              ##_GA_GCN54403_01     0000000000004500 CN15 Batman Brave and the BoldGCN544                        PR        YI      00CN15 Batman Brave and the Bold    
0400321           11164224 00000500                                            ##_PS_PCN4972#06_01   1000000010000424 Batman Brave and the Bold NextPCN4972                       PR         I      00PRO:Batman Brave and the Bold 16:9
0400322           11164724 00003000                                            ##_PR_PCN5469#03_01   1000000010002924 Regular Show Regular Show - Ne                              PR         S      00PRO:Today @ 16:25             16:9
0400323           11171724 00003000                                            ##_PR_PCN5478#02_01   1000000010002924 Nexo Knights Nexo Knights Char                              PR         S      00PRO:Every Sunday @ 17:20 (E)  16:9
0400324           11174724 00001000                                            ##_PS_PCN5492#01_01   0000010000001024 SP - Fox - Alvin Road Chip In PCN5492                       PR         I      00PRO:SP - Fox - Alvin Road Chip16:9
0600325           11175724 00000000                                                                  0000000000000000 NORDIC LOGO OFF                                             PR         I                                          
0400326           11175724 00000500                                            ##_PS_PCN5044#01_01   1000000010000424 CN Ad Bump Top                PCN5044                       PR         I      00PRO:CN Ad Bump Top            16:9
0600327           11180224 00000000                                                                  0000000000000000 CN Nordic cue tone start                                    CT         I                                          
0200328           11180224 00002000                                            51LLE20026_1          1000000010001924 SC-LEGO/FRIENDS               51LLE20026                    CA         S      01COM:51LLE20026                16:9
0200329           11182224 00002000                                            51TO020031_1          1000000010001924 SC-TOP/CARNIVAL               51TO020031                    CA         S      01COM:51TO020031                16:9
0200330           11184224 00002000                                            51LLE20024_1          1000000010001924 SC-LEGO/CITY                  51LLE20024                    CA         S      01COM:51LLE20024                16:9
0200331           11190224 00002000                                            D1RSLA2001_1          0000000000001924 DK-WB/MARVEL ANVENGE          D1RSLA2001                    CA         S      01COM:D1RSLA2001                16:9
0200332           11192224 00004000                                            51LLE40008_1          1000000010003924 SC-LEGO/NEXO KNIGHTS          51LLE40008                    CA         S      01COM:51LLE40008                16:9
0600333           11200224 00000000                                                                  0000000000000000 CN Nordic cue tone end                                      CT         I                                          
0600334           11200224 00000000                                                                  0000000000000000 NORDIC LOGO ON                                              PR         I                                          
0400335           11200224 00000500                                            ##_PS_PCN5044#02_01   1000000010000424 CN Ad Bump Tail               PCN5044                       PR         I      00PRO:CN Ad Bump Tail           16:9
0400336           11200724 00001000                                            ##_PS_PCN5492#02_01   0000010000001024 SP - Fox - Alvin Road Chip OutPCN5492                       PR         I      00PRO:SP - Fox - Alvin Road Chip16:9
0400337           11201724 00000500                                            ##_PS_PCN5255#02_01   1000000010000424 Batman Brave and the Bold Now PCN5255                       PR         I      00PRO:Batman Brave and the Bold 16:9
0100338           11202224 00000320                                            NO_SA_BATMBR0019_01_031000000010000319 BATMAN: THE BRAVE AND THE BOLD                              PG         P     Y03LOG:WB                        4:3 
0100339           11202619 00022308                                            NO_SA_BATMBR0019_01_041000032010022702 BATMAN: THE BRAVE AND THE BOLD                              PG         P     Y04PRB:Legends of the Dark Mite! 4:3 
0100340           11225002 00002821                                            NO_SA_BATMBR0019_01_051002270310025523 BATMAN: THE BRAVE AND THE BOLD                              PG         P     Y05OTS:Batman: The Brave and The 4:3 
0100341           11231823 00084301                                            NO_SA_BATMBR0019_01_061002552410113824 BATMAN: THE BRAVE AND THE BOLD                              PG         P     Y06PRT:Legends of the Dark Mite! 4:3 
0100342           11320124 00094915                                            NO_SA_BATMBR0019_01_071011390010212814 BATMAN: THE BRAVE AND THE BOLD                              PG         P      07PRT:Legends of the Dark Mite! 4:3 
0100343           11415114 00002402                                            NO_SA_BATMBR0019_01_081021281510215216 BATMAN: THE BRAVE AND THE BOLD                              PG         P      08CTS:Batman: The Brave and The 4:3 
0100344           11421516 00000210                                            NO_SA_BATMBR0019_01_091021521710215501 BATMAN: THE BRAVE AND THE BOLD                              PG         P      09LOG:DC Comics                 4:3 
0100345           11421801 00000210                                            NO_SA_BATMBR0019_01_101021550210215711 BATMAN: THE BRAVE AND THE BOLD                              PG         P      10LOG:WB                        4:3 
9900346           11422011 00004501            BS_AUTOL  00004500              ##_GA_GCN54505_01     0000000000004500 CN15 Lego Ninjago Next 45"    GCN545                        PR        YI      00CN15 Lego Ninjago Next 45"        
0400347           11422011 00000500                                            ##_PS_PCN5124#01_01   1000000010000424 Lego Ninjago Next             PCN5124                       PR         I      00PRO:Lego Ninjago S4 Next      16:9
0400348           11422511 00003000                                            ##_PR_PCN5475#03_01   1000000010002924 Nexo Knights Nexo Knights Sust                              PR         S      00PRO:Every Sunday@ 17:20       16:9
0400349           11425511 00001000                                            ##_PS_PCN5492#01_01   0000010000001024 SP - Fox - Alvin Road Chip In PCN5492                       PR         I      00PRO:SP - Fox - Alvin Road Chip16:9
0600350           11430511 00000000                                                                  0000000000000000 NORDIC LOGO OFF                                             PR         I                                          
0400351           11430511 00000500                                            ##_PS_PCN5044#01_01   1000000010000424 CN Ad Bump Top                PCN5044                       PR         I      00PRO:CN Ad Bump Top            16:9
0600352           11431011 00000000                                                                  0000000000000000 CN Nordic cue tone start                                    CT         I                                          
0200353           11431011 00002000                                            51LLE20024_1          1000000010001924 SC-LEGO/CITY                  51LLE20024                    CA         S      01COM:51LLE20024                16:9
0200354           11433011 00002000                                            51TO020031_1          1000000010001924 SC-TOP/CARNIVAL               51TO020031                    CA         S      01COM:51TO020031                16:9
0200355           11435011 00002000                                            D1RSLA2001_1          0000000000001924 DK-WB/MARVEL ANVENGE          D1RSLA2001                    CA         S      01COM:D1RSLA2001                16:9
0200356           11441011 00001500                                            51OLE15001_1          1000000010001424 SC-OVG/LEGO URE               51OLE15001                    CA         S      01COM:51OLE15001                16:9
0200357           11442511 00002500                                            D1CSNA2522_1          0000000000002424 SC-LALANDIA/LALANDIA          D1CSNA2522                    CA         S      01                                  
0200358           11445011 00002000                                            51LLE20028_1          1000000010001924 SC-LEGO/FRIENDS               51LLE20028                    CA         S      01COM:51LLE20028                16:9
0600359           11451011 00000000                                                                  0000000000000000 CN Nordic cue tone end                                      CT         I                                          
0600360           11451011 00000000                                                                  0000000000000000 NORDIC LOGO ON                                              PR         I                                          
0400361           11451011 00000500                                            ##_PS_PCN5044#02_01   1000000010000424 CN Ad Bump Tail               PCN5044                       PR         I      00PRO:CN Ad Bump Tail           16:9
0400362           11451511 00001000                                            ##_PS_PCN5492#02_01   0000010000001024 SP - Fox - Alvin Road Chip OutPCN5492                       PR         I      00PRO:SP - Fox - Alvin Road Chip16:9
0400363           11452511 00000500                                            ##_PS_PCN5108#05_01   1000000010000424 Lego Ninjago Now              PCN5108                       PR         I      00PRO:Lego Ninjago Now          16:9
0100364           11453011 00004501                                            NO_SA_NJSPIN0019_01_031000000410004504 NINJAGO: MASTERS OF SPINJITZU                               PG         P     Y03OTS:Wrong Place, Wrong Time   16:9
0100365           11461512 00102620                                            NO_SA_NJSPIN0019_01_041000450510111124 NINJAGO: MASTERS OF SPINJITZU                               PG         P     Y04PRT:Wrong Place, Wrong Time   16:9
0100366           11564207 00102804                                            NO_SA_NJSPIN0019_01_051011120010214003 NINJAGO: MASTERS OF SPINJITZU                               PG         P      05PRT:Wrong Place, Wrong Time   16:9
0100367           12071011 00001223                                            NO_SA_NJSPIN0019_01_061021400410215301 NINJAGO: MASTERS OF SPINJITZU                               PG         P      06CTG:NinjaGo: Masters of Spinji16:9
0100368           12072309 00000202                                            NO_SA_NJSPIN0019_01_071021530210215503 NINJAGO: MASTERS OF SPINJITZU                               PG         P      07LOG:Wil Film                  16:9
9900369           12072511 00004501            BS_AUTOL  00004500              ##_GA_GCN54404_01     0000000000004500 CN15 Ben 10 Next 45"          GCN544                        PR        YI      00CN15 Ben 10 Next 45"              
0400370           12072511 00000500                                            ##_PS_PCN4972#08_01   1000000010000424 Ben 10 Omniverse Next         PCN4972                       PR         I      00PRO:Ben 10 Omniverse Next     16:9
0400371           12073011 00003000                                            ##_PR_PCN5487#03_01   1000000010002924 Supernoobs SuperNoobs Characte                              PR         S      00PRO:Today @ 19:15 Character Sp16:9
0400372           12080011 00001000                                            ##_PS_PCN5492#01_01   0000010000001024 SP - Fox - Alvin Road Chip In PCN5492                       PR         I      00PRO:SP - Fox - Alvin Road Chip16:9
0600373           12081011 00000000                                                                  0000000000000000 NORDIC LOGO OFF                                             PR         I                                          
0400374           12081011 00000500                                            ##_PS_PCN5044#01_01   1000000010000424 CN Ad Bump Top                PCN5044                       PR         I      00PRO:CN Ad Bump Top            16:9
0600375           12081511 00000000                                                                  0000000000000000 CN Nordic cue tone start                                    CT         I                                          
0400376           12081511 00001000                                            ##_PS_PCN5043#01_01   1000000010000924 CN Character Ident 1 (10")    PCN5043                       PR         I      00PRO:CN Character Ident 1 (10")16:9
0200377           12082511 00003000                                            51LLE30010_1          1000000010002924 SC-LEGO/NEXO KNIGHTS          51LLE30010                    CA         S      01COM:51LLE30010                16:9
0200378           12085511 00002000                                            51TO020031_1          1000000010001924 SC-TOP/CARNIVAL               51TO020031                    CA         S      01COM:51TO020031                16:9
0200379           12091511 00002000                                            51LLE20026_1          1000000010001924 SC-LEGO/FRIENDS               51LLE20026                    CA         S      01COM:51LLE20026                16:9
0200380           12093511 00002000                                            D1RSLA2001_1          0000000000001924 DK-WB/MARVEL ANVENGE          D1RSLA2001                    CA         S      01COM:D1RSLA2001                16:9
0200381           12095511 00002000                                            51LLE20024_1          1000000010001924 SC-LEGO/CITY                  51LLE20024                    CA         S      01COM:51LLE20024                16:9
0600382           12101511 00000000                                                                  0000000000000000 CN Nordic cue tone end                                      CT         I                                          
0600383           12101511 00000000                                                                  0000000000000000 NORDIC LOGO ON                                              PR         I                                          
0400384           12101511 00000500                                            ##_PS_PCN5044#02_01   1000000010000424 CN Ad Bump Tail               PCN5044                       PR         I      00PRO:CN Ad Bump Tail           16:9
0400385           12102011 00001000                                            ##_PS_PCN5492#02_01   0000010000001024 SP - Fox - Alvin Road Chip OutPCN5492                       PR         I      00PRO:SP - Fox - Alvin Road Chip16:9
0400386           12103011 00000500                                            ##_PS_PCN5185#02_01   1000000010000424 Ben 10 Now                    PCN5185                       PR         I      00PRO:Now Ben 10                16:9
0100387           12103511 00012501                                            NO_SA_BENTOM0077_01_041000000410012504 BEN 10: OMNIVERSE / Malgax Att                              PG         P     Y04PRB:                          16:9
0100388           12120012 00002000                                            NO_SA_BENTOM0077_01_051001250510014504 BEN 10: OMNIVERSE / Malgax Att                              PG         P     Y05OTG:Ben 10                    16:9
0100389           12122012 00043406                                            NO_SA_BENTOM0077_01_061001450510061910 BEN 10: OMNIVERSE / Malgax Att                              PG         P     Y06PRT:                          16:9
0100390           12165418 00143811                                            NO_SA_BENTOM0077_01_071006191210205722 BEN 10: OMNIVERSE / Malgax Att                              PG         P      07PRT:                          16:9
0100391           12313304 00002301                                            NO_SA_BENTOM0077_01_091021002010212320 BEN 10: OMNIVERSE / Malgax Att                              PG         P      09CTG:Ben 10                    16:9
0100392           12315605 00000519                                            NO_SA_BENTOM0077_01_101021232110212914 BEN 10: OMNIVERSE / Malgax Att                              PG         P      10LOG:CN Studios                16:9
9900393           12320124 00004501            BS_AUTOL  00004500              ##_GA_GCN54511_01     0000000000004500 CN15 Scooby Doo Next 45"      GCN545                        PR        YI      00CN15 Scooby Doo Next 45"          
0400394           12320124 00000500                                            ##_PS_PCN4973#05_01   1000000010000424 Scooby Doo Mystery Inc. Next  PCN4973                       PR         I      00PRO:Scooby Doo Mystery Inc. Ne16:9
0400395           12320624 00003000                                            ##_PR_PCN5469#03_01   1000000010002924 Regular Show Regular Show - Ne                              PR         S      00PRO:Today @ 16:25             16:9
0400396           12323624 00003000                                            ##_PR_PCN5470#04_01   1000000010002924 Stunt We Bare Bears Weekend St                              PR         S      00PRO:Every Saturday @ 9:00     16:9
0400397           12330624 00001000                                            ##_PS_PCN5492#01_01   0000010000001024 SP - Fox - Alvin Road Chip In PCN5492                       PR         I      00PRO:SP - Fox - Alvin Road Chip16:9
0600398           12331624 00000000                                                                  0000000000000000 NORDIC LOGO OFF                                             PR         I                                          
0400399           12331624 00000500                                            ##_PS_PCN5044#01_01   1000000010000424 CN Ad Bump Top                PCN5044                       PR         I      00PRO:CN Ad Bump Top            16:9
0600400           12332124 00000000                                                                  0000000000000000 CN Nordic cue tone start                                    CT         I                                          
0400401           12332124 00001000                                            ##_PS_PCN5043#02_01   1000000010000924 CN Character Ident 2 (10")    PCN5043                       PR         I      00PRO:CN Character Ident 2 (10")16:9
0200402           12333124 00002000                                            51LLE20024_1          1000000010001924 SC-LEGO/CITY                  51LLE20024                    CA         S      01COM:51LLE20024                16:9
0200403           12335124 00002000                                            51TO020031_1          1000000010001924 SC-TOP/CARNIVAL               51TO020031                    CA         S      01COM:51TO020031                16:9
0200404           12341124 00002000                                            51LLE20028_1          1000000010001924 SC-LEGO/FRIENDS               51LLE20028                    CA         S      01COM:51LLE20028                16:9
0200405           12343124 00002000                                            D1RSLA2001_1          0000000000001924 DK-WB/MARVEL ANVENGE          D1RSLA2001                    CA         S      01COM:D1RSLA2001                16:9
0200406           12345124 00003000                                            51LLE30007_1          1000000010002924 SC-LEGO/NEXO KNIGHTS          51LLE30007                    CA         S      01COM:51LLE30007                16:9
0600407           12352124 00000000                                                                  0000000000000000 NORDIC LOGO ON                                              PR         I                                          
0600408           12352124 00000000                                                                  0000000000000000 CN Nordic cue tone end                                      CT         I                                          
0400409           12352124 00000500                                            ##_PS_PCN5044#02_01   1000000010000424 CN Ad Bump Tail               PCN5044                       PR         I      00PRO:CN Ad Bump Tail           16:9
0400410           12352624 00001000                                            ##_PS_PCN5492#02_01   0000010000001024 SP - Fox - Alvin Road Chip OutPCN5492                       PR         I      00PRO:SP - Fox - Alvin Road Chip16:9
0400411           12353624 00000500                                            ##_PS_PCN5298#01_01   1000000010000424 Scooby Doo Now                PCN5298                       PR         I      00PRO:Scooby Doo Now            16:9
0100412           12354124 00000321                                            NO_SA_SCOOMI0019_02_031000000010000320 SCOOBY-DOO! MYSTERY INCORPORAT                              PG         P     Y03LOG:WB Animation              16:9
0100413           12354520 00014613                                            NO_SA_SCOOMI0019_02_041000032110015008 SCOOBY-DOO! MYSTERY INCORPORAT                              PG         P     Y04PRB:Night Fright              16:9
0100414           12373208 00002922                                            NO_SA_SCOOMI0019_02_051001500910022005 SCOOBY-DOO! MYSTERY INCORPORAT                              PG         P     Y05OTS:Scooby-Doo! Mystery Incorp16:9
0100415           12380205 00111615                                            NO_SA_SCOOMI0019_02_061002200610133620 SCOOBY-DOO! MYSTERY INCORPORAT                              PG         P     Y06PRT:Night Fright              16:9
0100416           12491820 00070003                                            NO_SA_SCOOMI0019_02_071013362110203623 SCOOBY-DOO! MYSTERY INCORPORAT                              PG         P      07PRT:Night Fright              16:9
0100417           12561823 00002610                                            NO_SA_SCOOMI0019_02_081020362410210308 SCOOBY-DOO! MYSTERY INCORPORAT                              PG         P      08CTS:Scooby-Doo! Mystery Incorp16:9
0100418           12564508 00000216                                            NO_SA_SCOOMI0019_02_091021030910210524 SCOOBY-DOO! MYSTERY INCORPORAT                              PG         P      09LOG:WB Animation              16:9
9900419           12564724 00004501            BS_AUTOL  00004500              ##_GA_GCN54401_01     0000000000004500 CN15 Adventure Time Next 45"  GCN544                        PR        YI      00CN15 Adventure Time Next 45"      
0400420           12564724 00000500                                            ##_PS_PCN4972#04_01   1000000010000424 Adventure Time Next           PCN4972                       PR         I      00PRO:Adventure Time Next       16:9
0400421           12565224 00001500                                            ##_PS_PCN5493#01_01   1000000010001424 Winter Ident 2016 - Adventure PCN5493                       PR         I      00PRO:Winter Ident 2016 - Advent16:9
0400422           12570724 00003000                                            ##_PR_PCN5486#02_01   1000000010002924 Supernoobs SuperNoobs Sustain                               PR         S      00PRO:Today @ 19:15             16:9
0400423           12573724 00001000                                            ##_PS_PCN5492#01_01   0000010000001024 SP - Fox - Alvin Road Chip In PCN5492                       PR         I      00PRO:SP - Fox - Alvin Road Chip16:9
0600424           12574724 00000000                                                                  0000000000000000 NORDIC LOGO OFF                                             PR         I                                          
0400425           12574724 00000500                                            ##_PS_PCN5044#01_01   1000000010000424 CN Ad Bump Top                PCN5044                       PR         I      00PRO:CN Ad Bump Top            16:9
0600426           12575224 00000000                                                                  0000000000000000 CN Nordic cue tone start                                    CT         I                                          
0200427           12575224 00002000                                            D1RSLA2001_1          0000000000001924 DK-WB/MARVEL ANVENGE          D1RSLA2001                    CA         S      01COM:D1RSLA2001                16:9
0200428           12581224 00002000                                            51LLE20024_1          1000000010001924 SC-LEGO/CITY                  51LLE20024                    CA         S      01COM:51LLE20024                16:9
